{
  "_format": "hh3-artifact-1",
  "contractName": "DataStore",
  "sourceName": "contracts/DataStore.sol",
  "abi": [
    {
      "inputs": [],
      "name": "getData",
      "outputs": [
        {
          "internalType": "string",
          "name": "outPutMesage",
          "type": "string"
        }
      ],
      "stateMutability": "view",
      "type": "function"
    },
    {
      "inputs": [
        {
          "internalType": "string",
          "name": "messageData",
          "type": "string"
        }
      ],
      "name": "storeData",
      "outputs": [],
      "stateMutability": "nonpayable",
      "type": "function"
    }
  ],
  "bytecode": "0x6080604052348015600e575f5ffd5b5061037a8061001c5f395ff3fe608060405234801561000f575f5ffd5b5060043610610034575f3560e01c80633bc5de3014610038578063fb218f5f14610056575b5f5ffd5b61004061006b565b60405161004d9190610109565b60405180910390f35b610069610064366004610152565b6100fa565b005b60605f805461007990610205565b80601f01602080910402602001604051908101604052809291908181526020018280546100a590610205565b80156100f05780601f106100c7576101008083540402835291602001916100f0565b820191905f5260205f20905b8154815290600101906020018083116100d357829003601f168201915b5050505050905090565b5f6101058282610289565b5050565b602081525f82518060208401528060208501604085015e5f604082850101526040601f19601f83011684010191505092915050565b634e487b7160e01b5f52604160045260245ffd5b5f60208284031215610162575f5ffd5b813567ffffffffffffffff811115610178575f5ffd5b8201601f81018413610188575f5ffd5b803567ffffffffffffffff8111156101a2576101a261013e565b604051601f8201601f19908116603f0116810167ffffffffffffffff811182821017156101d1576101d161013e565b6040528181528282016020018610156101e8575f5ffd5b816020840160208301375f91810160200191909152949350505050565b600181811c9082168061021957607f821691505b60208210810361023757634e487b7160e01b5f52602260045260245ffd5b50919050565b601f82111561028457805f5260205f20601f840160051c810160208510156102625750805b601f840160051c820191505b81811015610281575f815560010161026e565b50505b505050565b815167ffffffffffffffff8111156102a3576102a361013e565b6102b7816102b18454610205565b8461023d565b6020601f8211600181146102e9575f83156102d25750848201515b5f19600385901b1c1916600184901b178455610281565b5f84815260208120601f198516915b8281101561031857878501518255602094850194600190920191016102f8565b508482101561033557868401515f19600387901b60f8161c191681555b50505050600190811b0190555056fea2646970667358221220333f0cbc1b045eab9e77a3ed781c9d087f1fda612a71e4aae2cec2a3a0d2934a64736f6c634300081c0033",
  "linkReferences": {},
  "deployedLinkReferences": {},
  "immutableReferences": {},
  "inputSourceName": "project/contracts/DataStore.sol",
  "buildInfoId": "solc-0_8_28-39a92d7e0426b198ee0c26f33ca20b22aed75339"
}